{
  "contractName": "DToken",
  "abi": [
    {
      "constant": true,
      "inputs": [],
      "name": "decimals",
      "outputs": [
        {
          "internalType": "uint8",
          "name": "",
          "type": "uint8"
        }
      ],
      "payable": false,
      "stateMutability": "view",
      "type": "function"
    },
    {
      "constant": true,
      "inputs": [],
      "name": "multiplier",
      "outputs": [
        {
          "internalType": "uint8",
          "name": "",
          "type": "uint8"
        }
      ],
      "payable": false,
      "stateMutability": "view",
      "type": "function"
    },
    {
      "constant": true,
      "inputs": [],
      "name": "name",
      "outputs": [
        {
          "internalType": "string",
          "name": "",
          "type": "string"
        }
      ],
      "payable": false,
      "stateMutability": "view",
      "type": "function"
    },
    {
      "constant": true,
      "inputs": [],
      "name": "symbol",
      "outputs": [
        {
          "internalType": "string",
          "name": "",
          "type": "string"
        }
      ],
      "payable": false,
      "stateMutability": "view",
      "type": "function"
    },
    {
      "constant": true,
      "inputs": [],
      "name": "totalSupply",
      "outputs": [
        {
          "internalType": "uint256",
          "name": "",
          "type": "uint256"
        }
      ],
      "payable": false,
      "stateMutability": "view",
      "type": "function"
    }
  ],
  "bytecode": "0x60806040526040518060400160405280600681526020017f44546f6b656e00000000000000000000000000000000000000000000000000008152506000908051906020019061004f9291906100f2565b506040518060400160405280600281526020017f44540000000000000000000000000000000000000000000000000000000000008152506001908051906020019061009b9291906100f2565b50670de0b6b3a76400006002556012600360006101000a81548160ff021916908360ff1602179055506002600360016101000a81548160ff021916908360ff1602179055503480156100ec57600080fd5b50610197565b828054600181600116156101000203166002900490600052602060002090601f016020900481019282601f1061013357805160ff1916838001178555610161565b82800160010185558215610161579182015b82811115610160578251825591602001919060010190610145565b5b50905061016e9190610172565b5090565b61019491905b80821115610190576000816000905550600101610178565b5090565b90565b610365806101a66000396000f3fe608060405234801561001057600080fd5b50600436106100575760003560e01c806306fdde031461005c57806318160ddd146100df5780631b3ed722146100fd578063313ce5671461012157806395d89b4114610145575b600080fd5b6100646101c8565b6040518080602001828103825283818151815260200191508051906020019080838360005b838110156100a4578082015181840152602081019050610089565b50505050905090810190601f1680156100d15780820380516001836020036101000a031916815260200191505b509250505060405180910390f35b6100e7610266565b6040518082815260200191505060405180910390f35b61010561026c565b604051808260ff1660ff16815260200191505060405180910390f35b61012961027f565b604051808260ff1660ff16815260200191505060405180910390f35b61014d610292565b6040518080602001828103825283818151815260200191508051906020019080838360005b8381101561018d578082015181840152602081019050610172565b50505050905090810190601f1680156101ba5780820380516001836020036101000a031916815260200191505b509250505060405180910390f35b60008054600181600116156101000203166002900480601f01602080910402602001604051908101604052809291908181526020018280546001816001161561010002031660029004801561025e5780601f106102335761010080835404028352916020019161025e565b820191906000526020600020905b81548152906001019060200180831161024157829003601f168201915b505050505081565b60025481565b600360019054906101000a900460ff1681565b600360009054906101000a900460ff1681565b60018054600181600116156101000203166002900480601f0160208091040260200160405190810160405280929190818152602001828054600181600116156101000203166002900480156103285780601f106102fd57610100808354040283529160200191610328565b820191906000526020600020905b81548152906001019060200180831161030b57829003601f168201915b50505050508156fea265627a7a723158204129a0c756c74f3b4eb4a350a25821a850c02d03f5e031e1f20f392c59d7c8c464736f6c63430005110032",
  "source": "pragma solidity ^0.5.0;\n\ncontract DToken {\n    string public name = \"DToken\";\n    string public symbol = \"DT\";\n    uint256 public totalSupply = 1000000000000000000;\n    uint8 public decimals = 18;\n    uint8 public multiplier = 2;\n}",
  "sourcePath": "/Users/douglasoliveira/Workspace/oliveirandouglas/defi-staking-app-starter/defi-staking-app-starter/src/contracts/DToken.sol",
  "compiler": {
    "name": "solc",
    "version": "0.5.17+commit.d19bba13.Emscripten.clang"
  },
  "schemaVersion": "3.4.7",
  "updatedAt": "2022-06-14T11:03:25.512Z",
  "networkType": "ethereum",
  "devdoc": {
    "methods": {}
  },
  "userdoc": {
    "methods": {}
  }
}